{
  "_format": "hh-sol-artifact-1",
  "contractName": "Certification",
  "sourceName": "contracts/Certification.sol",
  "abi": [
    {
      "inputs": [],
      "stateMutability": "nonpayable",
      "type": "constructor"
    },
    {
      "anonymous": false,
      "inputs": [
        {
          "indexed": true,
          "internalType": "bytes32",
          "name": "documentId",
          "type": "bytes32"
        },
        {
          "indexed": true,
          "internalType": "address",
          "name": "issuer",
          "type": "address"
        },
        {
          "indexed": true,
          "internalType": "address",
          "name": "recipient",
          "type": "address"
        },
        {
          "indexed": false,
          "internalType": "string",
          "name": "documentHash",
          "type": "string"
        }
      ],
      "name": "DocumentIssued",
      "type": "event"
    },
    {
      "anonymous": false,
      "inputs": [
        {
          "indexed": true,
          "internalType": "bytes32",
          "name": "documentId",
          "type": "bytes32"
        },
        {
          "indexed": true,
          "internalType": "address",
          "name": "issuer",
          "type": "address"
        }
      ],
      "name": "DocumentRevoked",
      "type": "event"
    },
    {
      "anonymous": false,
      "inputs": [
        {
          "indexed": true,
          "internalType": "address",
          "name": "user",
          "type": "address"
        },
        {
          "indexed": false,
          "internalType": "enum Certification.UserRole",
          "name": "newRole",
          "type": "uint8"
        }
      ],
      "name": "RoleUpdated",
      "type": "event"
    },
    {
      "anonymous": false,
      "inputs": [
        {
          "indexed": true,
          "internalType": "address",
          "name": "user",
          "type": "address"
        },
        {
          "indexed": false,
          "internalType": "enum Certification.UserRole",
          "name": "role",
          "type": "uint8"
        }
      ],
      "name": "UserRegistered",
      "type": "event"
    },
    {
      "anonymous": false,
      "inputs": [
        {
          "indexed": true,
          "internalType": "bytes32",
          "name": "requestId",
          "type": "bytes32"
        },
        {
          "indexed": false,
          "internalType": "bool",
          "name": "isVerified",
          "type": "bool"
        },
        {
          "indexed": false,
          "internalType": "string",
          "name": "notes",
          "type": "string"
        }
      ],
      "name": "VerificationCompleted",
      "type": "event"
    },
    {
      "anonymous": false,
      "inputs": [
        {
          "indexed": true,
          "internalType": "bytes32",
          "name": "requestId",
          "type": "bytes32"
        },
        {
          "indexed": true,
          "internalType": "bytes32",
          "name": "documentId",
          "type": "bytes32"
        },
        {
          "indexed": false,
          "internalType": "address",
          "name": "requester",
          "type": "address"
        }
      ],
      "name": "VerificationRequested",
      "type": "event"
    },
    {
      "inputs": [
        {
          "internalType": "bytes32",
          "name": "_requestId",
          "type": "bytes32"
        },
        {
          "internalType": "bool",
          "name": "_isVerified",
          "type": "bool"
        },
        {
          "internalType": "string",
          "name": "_notes",
          "type": "string"
        }
      ],
      "name": "completeVerification",
      "outputs": [],
      "stateMutability": "nonpayable",
      "type": "function"
    },
    {
      "inputs": [],
      "name": "documentCount",
      "outputs": [
        {
          "internalType": "uint256",
          "name": "",
          "type": "uint256"
        }
      ],
      "stateMutability": "view",
      "type": "function"
    },
    {
      "inputs": [
        {
          "internalType": "bytes32",
          "name": "",
          "type": "bytes32"
        },
        {
          "internalType": "uint256",
          "name": "",
          "type": "uint256"
        }
      ],
      "name": "documentVerifications",
      "outputs": [
        {
          "internalType": "bytes32",
          "name": "",
          "type": "bytes32"
        }
      ],
      "stateMutability": "view",
      "type": "function"
    },
    {
      "inputs": [
        {
          "internalType": "bytes32",
          "name": "",
          "type": "bytes32"
        }
      ],
      "name": "documents",
      "outputs": [
        {
          "internalType": "address",
          "name": "issuer",
          "type": "address"
        },
        {
          "internalType": "address",
          "name": "recipient",
          "type": "address"
        },
        {
          "internalType": "string",
          "name": "documentHash",
          "type": "string"
        },
        {
          "internalType": "string",
          "name": "metadataURI",
          "type": "string"
        },
        {
          "internalType": "uint256",
          "name": "timestamp",
          "type": "uint256"
        },
        {
          "internalType": "uint256",
          "name": "expirationDate",
          "type": "uint256"
        },
        {
          "internalType": "bool",
          "name": "isValid",
          "type": "bool"
        },
        {
          "internalType": "bool",
          "name": "isRevoked",
          "type": "bool"
        }
      ],
      "stateMutability": "view",
      "type": "function"
    },
    {
      "inputs": [
        {
          "internalType": "bytes32",
          "name": "_documentId",
          "type": "bytes32"
        }
      ],
      "name": "getDocument",
      "outputs": [
        {
          "components": [
            {
              "internalType": "address",
              "name": "issuer",
              "type": "address"
            },
            {
              "internalType": "address",
              "name": "recipient",
              "type": "address"
            },
            {
              "internalType": "string",
              "name": "documentHash",
              "type": "string"
            },
            {
              "internalType": "string",
              "name": "metadataURI",
              "type": "string"
            },
            {
              "internalType": "uint256",
              "name": "timestamp",
              "type": "uint256"
            },
            {
              "internalType": "uint256",
              "name": "expirationDate",
              "type": "uint256"
            },
            {
              "internalType": "bool",
              "name": "isValid",
              "type": "bool"
            },
            {
              "internalType": "bool",
              "name": "isRevoked",
              "type": "bool"
            }
          ],
          "internalType": "struct Certification.Document",
          "name": "",
          "type": "tuple"
        }
      ],
      "stateMutability": "view",
      "type": "function"
    },
    {
      "inputs": [
        {
          "internalType": "bytes32",
          "name": "_documentId",
          "type": "bytes32"
        }
      ],
      "name": "getDocumentVerifications",
      "outputs": [
        {
          "internalType": "bytes32[]",
          "name": "",
          "type": "bytes32[]"
        }
      ],
      "stateMutability": "view",
      "type": "function"
    },
    {
      "inputs": [
        {
          "internalType": "address",
          "name": "_institution",
          "type": "address"
        }
      ],
      "name": "getInstitutionDocuments",
      "outputs": [
        {
          "internalType": "bytes32[]",
          "name": "",
          "type": "bytes32[]"
        }
      ],
      "stateMutability": "view",
      "type": "function"
    },
    {
      "inputs": [
        {
          "internalType": "address",
          "name": "_user",
          "type": "address"
        }
      ],
      "name": "getUserDocuments",
      "outputs": [
        {
          "internalType": "bytes32[]",
          "name": "",
          "type": "bytes32[]"
        }
      ],
      "stateMutability": "view",
      "type": "function"
    },
    {
      "inputs": [
        {
          "internalType": "bytes32",
          "name": "_requestId",
          "type": "bytes32"
        }
      ],
      "name": "getVerificationRequest",
      "outputs": [
        {
          "components": [
            {
              "internalType": "bytes32",
              "name": "documentId",
              "type": "bytes32"
            },
            {
              "internalType": "address",
              "name": "requester",
              "type": "address"
            },
            {
              "internalType": "address",
              "name": "verifier",
              "type": "address"
            },
            {
              "internalType": "bool",
              "name": "isVerified",
              "type": "bool"
            },
            {
              "internalType": "bool",
              "name": "isRejected",
              "type": "bool"
            },
            {
              "internalType": "string",
              "name": "verificationNotes",
              "type": "string"
            },
            {
              "internalType": "uint256",
              "name": "timestamp",
              "type": "uint256"
            }
          ],
          "internalType": "struct Certification.VerificationRequest",
          "name": "",
          "type": "tuple"
        }
      ],
      "stateMutability": "view",
      "type": "function"
    },
    {
      "inputs": [
        {
          "internalType": "address",
          "name": "",
          "type": "address"
        },
        {
          "internalType": "uint256",
          "name": "",
          "type": "uint256"
        }
      ],
      "name": "institutionDocuments",
      "outputs": [
        {
          "internalType": "bytes32",
          "name": "",
          "type": "bytes32"
        }
      ],
      "stateMutability": "view",
      "type": "function"
    },
    {
      "inputs": [
        {
          "internalType": "bytes32",
          "name": "_documentId",
          "type": "bytes32"
        }
      ],
      "name": "isDocumentValid",
      "outputs": [
        {
          "internalType": "bool",
          "name": "",
          "type": "bool"
        }
      ],
      "stateMutability": "view",
      "type": "function"
    },
    {
      "inputs": [
        {
          "internalType": "bytes32",
          "name": "_documentId",
          "type": "bytes32"
        },
        {
          "internalType": "address",
          "name": "_recipient",
          "type": "address"
        },
        {
          "internalType": "string",
          "name": "_documentHash",
          "type": "string"
        },
        {
          "internalType": "string",
          "name": "_metadataURI",
          "type": "string"
        },
        {
          "internalType": "uint256",
          "name": "_expirationDays",
          "type": "uint256"
        }
      ],
      "name": "issueDocument",
      "outputs": [
        {
          "internalType": "bytes32",
          "name": "",
          "type": "bytes32"
        }
      ],
      "stateMutability": "nonpayable",
      "type": "function"
    },
    {
      "inputs": [],
      "name": "owner",
      "outputs": [
        {
          "internalType": "address",
          "name": "",
          "type": "address"
        }
      ],
      "stateMutability": "view",
      "type": "function"
    },
    {
      "inputs": [
        {
          "internalType": "address",
          "name": "_user",
          "type": "address"
        },
        {
          "internalType": "enum Certification.UserRole",
          "name": "_role",
          "type": "uint8"
        }
      ],
      "name": "registerUser",
      "outputs": [],
      "stateMutability": "nonpayable",
      "type": "function"
    },
    {
      "inputs": [
        {
          "internalType": "bytes32",
          "name": "_documentId",
          "type": "bytes32"
        },
        {
          "internalType": "address",
          "name": "_verifier",
          "type": "address"
        }
      ],
      "name": "requestVerification",
      "outputs": [
        {
          "internalType": "bytes32",
          "name": "",
          "type": "bytes32"
        }
      ],
      "stateMutability": "nonpayable",
      "type": "function"
    },
    {
      "inputs": [
        {
          "internalType": "bytes32",
          "name": "_documentId",
          "type": "bytes32"
        }
      ],
      "name": "revokeDocument",
      "outputs": [],
      "stateMutability": "nonpayable",
      "type": "function"
    },
    {
      "inputs": [
        {
          "internalType": "address",
          "name": "_user",
          "type": "address"
        },
        {
          "internalType": "enum Certification.UserRole",
          "name": "_newRole",
          "type": "uint8"
        }
      ],
      "name": "updateUserRole",
      "outputs": [],
      "stateMutability": "nonpayable",
      "type": "function"
    },
    {
      "inputs": [
        {
          "internalType": "address",
          "name": "",
          "type": "address"
        },
        {
          "internalType": "uint256",
          "name": "",
          "type": "uint256"
        }
      ],
      "name": "userDocuments",
      "outputs": [
        {
          "internalType": "bytes32",
          "name": "",
          "type": "bytes32"
        }
      ],
      "stateMutability": "view",
      "type": "function"
    },
    {
      "inputs": [
        {
          "internalType": "address",
          "name": "",
          "type": "address"
        }
      ],
      "name": "userRoles",
      "outputs": [
        {
          "internalType": "enum Certification.UserRole",
          "name": "",
          "type": "uint8"
        }
      ],
      "stateMutability": "view",
      "type": "function"
    },
    {
      "inputs": [
        {
          "internalType": "bytes32",
          "name": "",
          "type": "bytes32"
        }
      ],
      "name": "verificationRequests",
      "outputs": [
        {
          "internalType": "bytes32",
          "name": "documentId",
          "type": "bytes32"
        },
        {
          "internalType": "address",
          "name": "requester",
          "type": "address"
        },
        {
          "internalType": "address",
          "name": "verifier",
          "type": "address"
        },
        {
          "internalType": "bool",
          "name": "isVerified",
          "type": "bool"
        },
        {
          "internalType": "bool",
          "name": "isRejected",
          "type": "bool"
        },
        {
          "internalType": "string",
          "name": "verificationNotes",
          "type": "string"
        },
        {
          "internalType": "uint256",
          "name": "timestamp",
          "type": "uint256"
        }
      ],
      "stateMutability": "view",
      "type": "function"
    }
  ],
  "bytecode": "0x608060405234801561001057600080fd5b50600080546001600160a01b031916339081178255815260026020526040902080546003919060ff19166001830217905550336001600160a01b03167f8e18574f8a7333e6a87112742a55853a643e2f0550f4e1a3a2c3f1bb2994441d600360405161007c9190610089565b60405180910390a26100b1565b60208101600483106100ab57634e487b7160e01b600052602160045260246000fd5b91905290565b612037806100c06000396000f3fe608060405234801561001057600080fd5b506004361061012c5760003560e01c806384a1826e116100ad5780639e9fa097116100715780639e9fa097146102ed578063a5b16b2e14610300578063b10d6b4114610309578063c0c4857014610329578063c291fe621461033c57600080fd5b806384a1826e146102765780638badc791146102895780638da5cb5b1461029c57806390a4b162146102c7578063952be80d146102da57600080fd5b806352b199f4116100f457806352b199f4146101e8578063577a1b92146101fb57806374d5e1001461020e578063780c7fb71461023e57806381450e5b1461025357600080fd5b80630f3908c8146101315780631027beeb1461016057806313003b40146101805780632b2805db146101a15780634beb7d39146101c8575b600080fd5b61014461013f36600461188e565b61034f565b60405161015797969594939291906118ed565b60405180910390f35b61017361016e36600461195f565b610429565b6040516101579190611981565b61019361018e3660046119c5565b6104c7565b604051908152602001610157565b6101b46101af36600461188e565b6104f8565b6040516101579897969594939291906119e7565b6101db6101d636600461188e565b61065e565b6040516101579190611a52565b6101936101f6366004611b6c565b6107a6565b610193610209366004611bf2565b610b0d565b61023161021c36600461195f565b60026020526000908152604090205460ff1681565b6040516101579190611c32565b61025161024c366004611c5a565b610b29565b005b61026661026136600461188e565b610c8c565b6040519015158152602001610157565b610193610284366004611bf2565b610e89565b61017361029736600461188e565b610ea5565b6000546102af906001600160a01b031681565b6040516001600160a01b039091168152602001610157565b6101736102d536600461195f565b610f3d565b6102516102e836600461188e565b610fcf565b6102516102fb366004611cb8565b611109565b61019360015481565b61031c61031736600461188e565b611254565b6040516101579190611cf3565b610193610337366004611d9d565b611485565b61025161034a366004611cb8565b611750565b600460205260009081526040902080546001820154600283015460038401805493946001600160a01b03938416949383169360ff600160a01b8504811694600160a81b90041692906103a090611dc9565b80601f01602080910402602001604051908101604052809291908181526020018280546103cc90611dc9565b80156104195780601f106103ee57610100808354040283529160200191610419565b820191906000526020600020905b8154815290600101906020018083116103fc57829003601f168201915b5050505050908060040154905087565b6060816001600160a01b03811661045b5760405162461bcd60e51b815260040161045290611dfd565b60405180910390fd5b6001600160a01b038316600090815260066020908152604091829020805483518184028101840190945280845290918301828280156104b957602002820191906000526020600020905b8154815260200190600101908083116104a5575b505050505091505b50919050565b600760205281600052604060002081815481106104e357600080fd5b90600052602060002001600091509150505481565b6003602052600090815260409020805460018201546002830180546001600160a01b0393841694929093169261052d90611dc9565b80601f016020809104026020016040519081016040528092919081815260200182805461055990611dc9565b80156105a65780601f1061057b576101008083540402835291602001916105a6565b820191906000526020600020905b81548152906001019060200180831161058957829003601f168201915b5050505050908060030180546105bb90611dc9565b80601f01602080910402602001604051908101604052809291908181526020018280546105e790611dc9565b80156106345780601f1061060957610100808354040283529160200191610634565b820191906000526020600020905b81548152906001019060200180831161061757829003601f168201915b50505050600483015460058401546006909401549293909290915060ff8082169161010090041688565b6040805160e08101825260008082526020820181905291810182905260608082018390526080820183905260a082015260c0810191909152600082815260046020908152604091829020825160e0810184528154815260018201546001600160a01b039081169382019390935260028201549283169381019390935260ff600160a01b8304811615156060850152600160a81b9092049091161515608083015260038101805460a08401919061071390611dc9565b80601f016020809104026020016040519081016040528092919081815260200182805461073f90611dc9565b801561078c5780601f106107615761010080835404028352916020019161078c565b820191906000526020600020905b81548152906001019060200180831161076f57829003601f168201915b505050505081526020016004820154815250509050919050565b60006003803360009081526002602052604090205460ff1660038111156107cf576107cf611c1c565b1461081c5760405162461bcd60e51b815260206004820152601860248201527f496e73756666696369656e74207065726d697373696f6e7300000000000000006044820152606401610452565b856001600160a01b0381166108435760405162461bcd60e51b815260040161045290611dfd565b60008651116108945760405162461bcd60e51b815260206004820152601d60248201527f446f63756d656e7420686173682063616e6e6f7420626520656d7074790000006044820152606401610452565b6000888152600360205260409020546001600160a01b0316156108f95760405162461bcd60e51b815260206004820152601760248201527f446f63756d656e7420616c7265616479206973737565640000000000000000006044820152606401610452565b6000808511610909576000610920565b6109168562015180611e3c565b6109209042611e59565b90506000604051806101000160405280336001600160a01b031681526020018a6001600160a01b0316815260200189815260200188815260200142815260200183815260200160011515815260200160001515815250905080600360008c815260200190815260200160002060008201518160000160006101000a8154816001600160a01b0302191690836001600160a01b0316021790555060208201518160010160006101000a8154816001600160a01b0302191690836001600160a01b0316021790555060408201518160020190816109fb9190611ebb565b5060608201516003820190610a109082611ebb565b506080820151600482015560a082015160058083019190915560c08301516006928301805460e09095015115156101000261ff00199215159290921661ffff1990951694909417179092556001600160a01b038b16600090815260209283526040808220805460018181018355918452858420018f90553383529284528120805480840182559082529281209092018c9055805491610aae83611f7b565b9190505550886001600160a01b0316336001600160a01b03168b7f0cc24d0b046211ceb53506002dcd203c49919e178e3c9c172f9d406a250c09ab8b604051610af79190611f94565b60405180910390a4509798975050505050505050565b600560205281600052604060002081815481106104e357600080fd5b600083815260046020526040902060028101546001600160a01b03163314610b935760405162461bcd60e51b815260206004820152601960248201527f4e6f74207468652061737369676e6564207665726966696572000000000000006044820152606401610452565b6002810154600160a01b900460ff16158015610bbb57506002810154600160a81b900460ff16155b610c075760405162461bcd60e51b815260206004820152601960248201527f5265717565737420616c72656164792070726f636573736564000000000000006044820152606401610452565b8215610c275760028101805460ff60a01b1916600160a01b179055610c3d565b60028101805460ff60a81b1916600160a81b1790555b60038101610c4b8382611ebb565b50837f5b5b2e0e6d91b3530f76e5d643dbc08804627496f87d19a6562555fd4eed03428484604051610c7e929190611fa7565b60405180910390a250505050565b600081815260036020908152604080832081516101008101835281546001600160a01b0390811682526001830154169381019390935260028101805485949384019190610cd890611dc9565b80601f0160208091040260200160405190810160405280929190818152602001828054610d0490611dc9565b8015610d515780601f10610d2657610100808354040283529160200191610d51565b820191906000526020600020905b815481529060010190602001808311610d3457829003601f168201915b50505050508152602001600382018054610d6a90611dc9565b80601f0160208091040260200160405190810160405280929190818152602001828054610d9690611dc9565b8015610de35780601f10610db857610100808354040283529160200191610de3565b820191906000526020600020905b815481529060010190602001808311610dc657829003601f168201915b5050509183525050600482015460208201526005820154604082015260069091015460ff8082161515606084015261010090910416151560809091015280519091506001600160a01b0316610e3b5750600092915050565b8060e0015180610e4d57508060c00151155b15610e5b5750600092915050565b60008160a00151118015610e7257508060a0015142115b15610e805750600092915050565b50600192915050565b600660205281600052604060002081815481106104e357600080fd5b60008181526003602052604090205460609082906001600160a01b0316610ede5760405162461bcd60e51b815260040161045290611fca565b600083815260076020908152604091829020805483518184028101840190945280845290918301828280156104b957602002820191906000526020600020908154815260200190600101908083116104a5575050505050915050919050565b6060816001600160a01b038116610f665760405162461bcd60e51b815260040161045290611dfd565b6001600160a01b038316600090815260056020908152604091829020805483518184028101840190945280845290918301828280156104b957602002820191906000526020600020908154815260200190600101908083116104a5575050505050915050919050565b60008181526003602052604090205481906001600160a01b03166110055760405162461bcd60e51b815260040161045290611fca565b600082815260036020526040902080546001600160a01b0316331461106c5760405162461bcd60e51b815260206004820152601760248201527f4e6f742074686520646f63756d656e74206973737565720000000000000000006044820152606401610452565b6006810154610100900460ff16156110c65760405162461bcd60e51b815260206004820152601860248201527f446f63756d656e7420616c7265616479207265766f6b656400000000000000006044820152606401610452565b60068101805461ffff1916610100179055604051339084907f0a7643bfbd115d98595cc7bd15944172c7ef0e4a7f48dcaf676dec4b74be936790600090a3505050565b6000546001600160a01b0316331461115d5760405162461bcd60e51b815260206004820152601760248201527621b0b63632b91034b9903737ba103a34329037bbb732b960491b6044820152606401610452565b816001600160a01b0381166111845760405162461bcd60e51b815260040161045290611dfd565b600082600381111561119857611198611c1c565b036111d45760405162461bcd60e51b815260206004820152600c60248201526b496e76616c696420726f6c6560a01b6044820152606401610452565b6001600160a01b0383166000908152600260205260409020805483919060ff1916600183600381111561120957611209611c1c565b0217905550826001600160a01b03167f8e18574f8a7333e6a87112742a55853a643e2f0550f4e1a3a2c3f1bb2994441d836040516112479190611c32565b60405180910390a2505050565b6112b260405180610100016040528060006001600160a01b0316815260200160006001600160a01b03168152602001606081526020016060815260200160008152602001600081526020016000151581526020016000151581525090565b60008281526003602052604090205482906001600160a01b03166112e85760405162461bcd60e51b815260040161045290611fca565b60008381526003602090815260409182902082516101008101845281546001600160a01b03908116825260018301541692810192909252600281018054929391929184019161133690611dc9565b80601f016020809104026020016040519081016040528092919081815260200182805461136290611dc9565b80156113af5780601f10611384576101008083540402835291602001916113af565b820191906000526020600020905b81548152906001019060200180831161139257829003601f168201915b505050505081526020016003820180546113c890611dc9565b80601f01602080910402602001604051908101604052809291908181526020018280546113f490611dc9565b80156114415780601f1061141657610100808354040283529160200191611441565b820191906000526020600020905b81548152906001019060200180831161142457829003601f168201915b5050509183525050600482015460208201526005820154604082015260069091015460ff808216151560608401526101009091041615156080909101529392505050565b60008281526003602052604081205483906001600160a01b03166114bb5760405162461bcd60e51b815260040161045290611fca565b826001600160a01b0381166114e25760405162461bcd60e51b815260040161045290611dfd565b60026001600160a01b03851660009081526002602052604090205460ff16600381111561151157611511611c1c565b146115555760405162461bcd60e51b81526020600482015260146024820152732737ba1030903b30b634b2103b32b934b334b2b960611b6044820152606401610452565b6000858152600360205260409020600101546001600160a01b031633146115b75760405162461bcd60e51b81526020600482015260166024820152752737ba103a3432903237b1bab6b2b73a1037bbb732b960511b6044820152606401610452565b60408051602081018790526bffffffffffffffffffffffff1933606090811b8216938301939093529186901b909116605482015242606882015260009060880160408051601f19818403018152828252805160209182012060e084018352898452338483019081526001600160a01b038a81168686019081526000606088018181526080890182815288518089018a5283815260a08b019081524260c08c01528784526004909852979091208851815593516001850180549185166001600160a01b03199092169190911790559051600284018054925197511515600160a81b0260ff60a81b19981515600160a01b026001600160a81b03199094169290941691909117919091179590951617909355905190935082919060038201906116de9082611ebb565b5060c0919091015160049091015560008781526007602090815260408083208054600181018255908452928290209092018490559051338152889184917fe18d60c8e7415f7716c2b12f8e441108eb5967751760c77c44aa514c0d02354d910160405180910390a35095945050505050565b6000546001600160a01b031633146117a45760405162461bcd60e51b815260206004820152601760248201527621b0b63632b91034b9903737ba103a34329037bbb732b960491b6044820152606401610452565b816001600160a01b0381166117cb5760405162461bcd60e51b815260040161045290611dfd565b60008260038111156117df576117df611c1c565b0361181b5760405162461bcd60e51b815260206004820152600c60248201526b496e76616c696420726f6c6560a01b6044820152606401610452565b6001600160a01b0383166000908152600260205260409020805483919060ff1916600183600381111561185057611850611c1c565b0217905550826001600160a01b03167fc3f8f61911a1537261f77e2703626e158e299a98e341024ecaa26bbd1d884c64836040516112479190611c32565b6000602082840312156118a057600080fd5b5035919050565b6000815180845260005b818110156118cd576020818501810151868301820152016118b1565b506000602082860101526020601f19601f83011685010191505092915050565b8781526001600160a01b038781166020830152861660408201528415156060820152831515608082015260e060a0820181905260009061192f908301856118a7565b90508260c083015298975050505050505050565b80356001600160a01b038116811461195a57600080fd5b919050565b60006020828403121561197157600080fd5b61197a82611943565b9392505050565b6020808252825182820181905260009190848201906040850190845b818110156119b95783518352928401929184019160010161199d565b50909695505050505050565b600080604083850312156119d857600080fd5b50508035926020909101359150565b6001600160a01b0389811682528816602082015261010060408201819052600090611a148382018a6118a7565b90508281036060840152611a2881896118a7565b6080840197909752505060a081019390935290151560c0830152151560e090910152949350505050565b60208152815160208201526000602083015160018060a01b03808216604085015280604086015116606085015250506060830151151560808301526080830151151560a083015260a083015160e060c0840152611ab36101008401826118a7565b905060c084015160e08401528091505092915050565b634e487b7160e01b600052604160045260246000fd5b600082601f830112611af057600080fd5b813567ffffffffffffffff80821115611b0b57611b0b611ac9565b604051601f8301601f19908116603f01168101908282118183101715611b3357611b33611ac9565b81604052838152866020858801011115611b4c57600080fd5b836020870160208301376000602085830101528094505050505092915050565b600080600080600060a08688031215611b8457600080fd5b85359450611b9460208701611943565b9350604086013567ffffffffffffffff80821115611bb157600080fd5b611bbd89838a01611adf565b94506060880135915080821115611bd357600080fd5b50611be088828901611adf565b95989497509295608001359392505050565b60008060408385031215611c0557600080fd5b611c0e83611943565b946020939093013593505050565b634e487b7160e01b600052602160045260246000fd5b6020810160048310611c5457634e487b7160e01b600052602160045260246000fd5b91905290565b600080600060608486031215611c6f57600080fd5b8335925060208401358015158114611c8657600080fd5b9150604084013567ffffffffffffffff811115611ca257600080fd5b611cae86828701611adf565b9150509250925092565b60008060408385031215611ccb57600080fd5b611cd483611943565b9150602083013560048110611ce857600080fd5b809150509250929050565b602080825282516001600160a01b031682820152820151600090611d2260408401826001600160a01b03169052565b506040830151610100806060850152611d3f6101208501836118a7565b91506060850151601f19858403016080860152611d5c83826118a7565b925050608085015160a085015260a085015160c085015260c0850151611d8660e086018215159052565b5060e0850151801515858301525090949350505050565b60008060408385031215611db057600080fd5b82359150611dc060208401611943565b90509250929050565b600181811c90821680611ddd57607f821691505b6020821081036104c157634e487b7160e01b600052602260045260246000fd5b6020808252600f908201526e496e76616c6964206164647265737360881b604082015260600190565b634e487b7160e01b600052601160045260246000fd5b8082028115828204841417611e5357611e53611e26565b92915050565b80820180821115611e5357611e53611e26565b601f821115611eb657600081815260208120601f850160051c81016020861015611e935750805b601f850160051c820191505b81811015611eb257828155600101611e9f565b5050505b505050565b815167ffffffffffffffff811115611ed557611ed5611ac9565b611ee981611ee38454611dc9565b84611e6c565b602080601f831160018114611f1e5760008415611f065750858301515b600019600386901b1c1916600185901b178555611eb2565b600085815260208120601f198616915b82811015611f4d57888601518255948401946001909101908401611f2e565b5085821015611f6b5787850151600019600388901b60f8161c191681555b5050505050600190811b01905550565b600060018201611f8d57611f8d611e26565b5060010190565b60208152600061197a60208301846118a7565b8215158152604060208201526000611fc260408301846118a7565b949350505050565b60208082526017908201527f446f63756d656e7420646f6573206e6f7420657869737400000000000000000060408201526060019056fea264697066735822122027d7a167259576d32184ee27d6767afb2fcdee053f948f41a37e492c0715296a64736f6c63430008140033",
  "linkReferences": {},
  "deployedLinkReferences": {}
}